{
  "_format": "hh-sol-artifact-1",
  "contractName": "Share",
  "sourceName": "contracts/Share.sol",
  "abi": [
    {
      "inputs": [
        {
          "internalType": "address",
          "name": "user",
          "type": "address"
        },
        {
          "internalType": "string",
          "name": "name",
          "type": "string"
        }
      ],
      "name": "addFriend",
      "outputs": [],
      "stateMutability": "nonpayable",
      "type": "function"
    },
    {
      "inputs": [
        {
          "internalType": "address",
          "name": "user",
          "type": "address"
        },
        {
          "internalType": "string",
          "name": "fileHash",
          "type": "string"
        }
      ],
      "name": "deleteFile",
      "outputs": [],
      "stateMutability": "nonpayable",
      "type": "function"
    },
    {
      "inputs": [
        {
          "internalType": "address",
          "name": "user",
          "type": "address"
        }
      ],
      "name": "deleteFriend",
      "outputs": [],
      "stateMutability": "nonpayable",
      "type": "function"
    },
    {
      "inputs": [
        {
          "internalType": "address",
          "name": "user",
          "type": "address"
        }
      ],
      "name": "getFiles",
      "outputs": [
        {
          "components": [
            {
              "internalType": "string",
              "name": "name",
              "type": "string"
            },
            {
              "internalType": "string",
              "name": "IpfsHash",
              "type": "string"
            }
          ],
          "internalType": "struct Share.File[]",
          "name": "",
          "type": "tuple[]"
        }
      ],
      "stateMutability": "view",
      "type": "function"
    },
    {
      "inputs": [],
      "name": "getFriends",
      "outputs": [
        {
          "components": [
            {
              "internalType": "string",
              "name": "name",
              "type": "string"
            },
            {
              "internalType": "address",
              "name": "address_",
              "type": "address"
            }
          ],
          "internalType": "struct Share.Friend[]",
          "name": "",
          "type": "tuple[]"
        }
      ],
      "stateMutability": "view",
      "type": "function"
    },
    {
      "inputs": [],
      "name": "getNotifications",
      "outputs": [
        {
          "internalType": "address[]",
          "name": "",
          "type": "address[]"
        }
      ],
      "stateMutability": "view",
      "type": "function"
    },
    {
      "inputs": [],
      "name": "removeNotification",
      "outputs": [],
      "stateMutability": "nonpayable",
      "type": "function"
    },
    {
      "inputs": [
        {
          "internalType": "address",
          "name": "user",
          "type": "address"
        },
        {
          "internalType": "string",
          "name": "name",
          "type": "string"
        },
        {
          "internalType": "string",
          "name": "hash",
          "type": "string"
        }
      ],
      "name": "shareFile",
      "outputs": [],
      "stateMutability": "nonpayable",
      "type": "function"
    },
    {
      "inputs": [
        {
          "internalType": "address",
          "name": "user",
          "type": "address"
        }
      ],
      "name": "sharedFiles",
      "outputs": [
        {
          "components": [
            {
              "internalType": "string",
              "name": "name",
              "type": "string"
            },
            {
              "internalType": "string",
              "name": "IpfsHash",
              "type": "string"
            }
          ],
          "internalType": "struct Share.File[]",
          "name": "",
          "type": "tuple[]"
        }
      ],
      "stateMutability": "view",
      "type": "function"
    }
  ],
  "bytecode": "0x608060405234801561001057600080fd5b50612139806100206000396000f3fe608060405234801561001057600080fd5b50600436106100935760003560e01c806386e719d91161006657806386e719d91461011e5780639325df2614610128578063cf48bd2c14610144578063d72c152214610162578063f76a961a1461019257610093565b8063101f5106146100985780631f8f7270146100b45780633b9f708d146100d2578063433bf37b146100ee575b600080fd5b6100b260048036038101906100ad9190611636565b6101ae565b005b6100bc610460565b6040516100c9919061181f565b60405180910390f35b6100ec60048036038101906100e79190611636565b6105e4565b005b61010860048036038101906101039190611841565b610825565b6040516101159190611974565b60405180910390f35b610126610a23565b005b610142600480360381019061013d9190611841565b610a70565b005b61014c610db6565b6040516101599190611a45565b60405180910390f35b61017c60048036038101906101779190611841565b610e81565b6040516101899190611974565b60405180910390f35b6101ac60048036038101906101a79190611a67565b61107f565b005b60008060003373ffffffffffffffffffffffffffffffffffffffff1673ffffffffffffffffffffffffffffffffffffffff16815260200190815260200160002060008473ffffffffffffffffffffffffffffffffffffffff1673ffffffffffffffffffffffffffffffffffffffff16815260200190815260200160002090506000805b8280549050811015610305578281815481106102505761024f611af2565b5b9060005260206000209060020201600101805461026c90611b50565b905084511480156102eb575082818154811061028b5761028a611af2565b5b90600052602060002090600202016001016040516020016102ac9190611c24565b60405160208183030381529060405280519060200120846040516020016102d39190611c6c565b60405160208183030381529060405280519060200120145b156102f857809150610305565b8080600101915050610231565b5081600183805490506103189190611cbc565b8154811061032957610328611af2565b5b906000526020600020906002020182828154811061034a57610349611af2565b5b90600052602060002090600202016000820181600001908161036c9190611e9d565b50600182018160010190816103819190611e9d565b509050508180548061039657610395611f85565b5b6001900381819060005260206000209060020201600080820160006103bb9190611347565b6001820160006103cb9190611347565b50509055816000803373ffffffffffffffffffffffffffffffffffffffff1673ffffffffffffffffffffffffffffffffffffffff16815260200190815260200160002060008673ffffffffffffffffffffffffffffffffffffffff1673ffffffffffffffffffffffffffffffffffffffff168152602001908152602001600020908054610459929190611387565b5050505050565b6060600160003373ffffffffffffffffffffffffffffffffffffffff1673ffffffffffffffffffffffffffffffffffffffff168152602001908152602001600020805480602002602001604051908101604052809291908181526020016000905b828210156105db57838290600052602060002090600202016040518060400160405290816000820180546104f490611b50565b80601f016020809104026020016040519081016040528092919081815260200182805461052090611b50565b801561056d5780601f106105425761010080835404028352916020019161056d565b820191906000526020600020905b81548152906001019060200180831161055057829003601f168201915b505050505081526020016001820160009054906101000a900473ffffffffffffffffffffffffffffffffffffffff1673ffffffffffffffffffffffffffffffffffffffff1673ffffffffffffffffffffffffffffffffffffffff1681525050815260200190600101906104c1565b50505050905090565b60005b600160003373ffffffffffffffffffffffffffffffffffffffff1673ffffffffffffffffffffffffffffffffffffffff1681526020019081526020016000208054905081101561072e578273ffffffffffffffffffffffffffffffffffffffff16600160003373ffffffffffffffffffffffffffffffffffffffff1673ffffffffffffffffffffffffffffffffffffffff168152602001908152602001600020828154811061069957610698611af2565b5b906000526020600020906002020160010160009054906101000a900473ffffffffffffffffffffffffffffffffffffffff1673ffffffffffffffffffffffffffffffffffffffff1603610721576040517f08c379a000000000000000000000000000000000000000000000000000000000815260040161071890612011565b60405180910390fd5b80806001019150506105e7565b50600160003373ffffffffffffffffffffffffffffffffffffffff1673ffffffffffffffffffffffffffffffffffffffff16815260200190815260200160002060405180604001604052808381526020018473ffffffffffffffffffffffffffffffffffffffff16815250908060018154018082558091505060019003906000526020600020906002020160009091909190915060008201518160000190816107d79190612031565b5060208201518160010160006101000a81548173ffffffffffffffffffffffffffffffffffffffff021916908373ffffffffffffffffffffffffffffffffffffffff16021790555050505050565b60606000808373ffffffffffffffffffffffffffffffffffffffff1673ffffffffffffffffffffffffffffffffffffffff16815260200190815260200160002060003373ffffffffffffffffffffffffffffffffffffffff1673ffffffffffffffffffffffffffffffffffffffff168152602001908152602001600020805480602002602001604051908101604052809291908181526020016000905b82821015610a1857838290600052602060002090600202016040518060400160405290816000820180546108f590611b50565b80601f016020809104026020016040519081016040528092919081815260200182805461092190611b50565b801561096e5780601f106109435761010080835404028352916020019161096e565b820191906000526020600020905b81548152906001019060200180831161095157829003601f168201915b5050505050815260200160018201805461098790611b50565b80601f01602080910402602001604051908101604052809291908181526020018280546109b390611b50565b8015610a005780601f106109d557610100808354040283529160200191610a00565b820191906000526020600020905b8154815290600101906020018083116109e357829003601f168201915b505050505081525050815260200190600101906108c2565b505050509050919050565b600260003373ffffffffffffffffffffffffffffffffffffffff1673ffffffffffffffffffffffffffffffffffffffff1681526020019081526020016000206000610a6e9190611409565b565b6000805b600160003373ffffffffffffffffffffffffffffffffffffffff1673ffffffffffffffffffffffffffffffffffffffff16815260200190815260200160002080549050811015610b8857600160003373ffffffffffffffffffffffffffffffffffffffff1673ffffffffffffffffffffffffffffffffffffffff1681526020019081526020016000208181548110610b0f57610b0e611af2565b5b906000526020600020906002020160010160009054906101000a900473ffffffffffffffffffffffffffffffffffffffff1673ffffffffffffffffffffffffffffffffffffffff168373ffffffffffffffffffffffffffffffffffffffff1603610b7b57809150610b88565b8080600101915050610a74565b50600160003373ffffffffffffffffffffffffffffffffffffffff1673ffffffffffffffffffffffffffffffffffffffff16815260200190815260200160002060018060003373ffffffffffffffffffffffffffffffffffffffff1673ffffffffffffffffffffffffffffffffffffffff16815260200190815260200160002080549050610c169190611cbc565b81548110610c2757610c26611af2565b5b9060005260206000209060020201600160003373ffffffffffffffffffffffffffffffffffffffff1673ffffffffffffffffffffffffffffffffffffffff1681526020019081526020016000208281548110610c8657610c85611af2565b5b906000526020600020906002020160008201816000019081610ca89190611e9d565b506001820160009054906101000a900473ffffffffffffffffffffffffffffffffffffffff168160010160006101000a81548173ffffffffffffffffffffffffffffffffffffffff021916908373ffffffffffffffffffffffffffffffffffffffff160217905550905050600160003373ffffffffffffffffffffffffffffffffffffffff1673ffffffffffffffffffffffffffffffffffffffff168152602001908152602001600020805480610d6257610d61611f85565b5b600190038181906000526020600020906002020160008082016000610d879190611347565b6001820160006101000a81549073ffffffffffffffffffffffffffffffffffffffff0219169055505090555050565b6060600260003373ffffffffffffffffffffffffffffffffffffffff1673ffffffffffffffffffffffffffffffffffffffff168152602001908152602001600020805480602002602001604051908101604052809291908181526020018280548015610e7757602002820191906000526020600020905b8160009054906101000a900473ffffffffffffffffffffffffffffffffffffffff1673ffffffffffffffffffffffffffffffffffffffff1681526020019060010190808311610e2d575b5050505050905090565b60606000803373ffffffffffffffffffffffffffffffffffffffff1673ffffffffffffffffffffffffffffffffffffffff16815260200190815260200160002060008373ffffffffffffffffffffffffffffffffffffffff1673ffffffffffffffffffffffffffffffffffffffff168152602001908152602001600020805480602002602001604051908101604052809291908181526020016000905b828210156110745783829060005260206000209060020201604051806040016040529081600082018054610f5190611b50565b80601f0160208091040260200160405190810160405280929190818152602001828054610f7d90611b50565b8015610fca5780601f10610f9f57610100808354040283529160200191610fca565b820191906000526020600020905b815481529060010190602001808311610fad57829003601f168201915b50505050508152602001600182018054610fe390611b50565b80601f016020809104026020016040519081016040528092919081815260200182805461100f90611b50565b801561105c5780601f106110315761010080835404028352916020019161105c565b820191906000526020600020905b81548152906001019060200180831161103f57829003601f168201915b50505050508152505081526020019060010190610f1e565b505050509050919050565b6000803373ffffffffffffffffffffffffffffffffffffffff1673ffffffffffffffffffffffffffffffffffffffff16815260200190815260200160002060008473ffffffffffffffffffffffffffffffffffffffff1673ffffffffffffffffffffffffffffffffffffffff1681526020019081526020016000206040518060400160405280848152602001838152509080600181540180825580915050600190039060005260206000209060020201600090919091909150600082015181600001908161114d9190612031565b5060208201518160010190816111639190612031565b50505061116f83611174565b505050565b61117d81611225565b61122257600260008273ffffffffffffffffffffffffffffffffffffffff1673ffffffffffffffffffffffffffffffffffffffff168152602001908152602001600020339080600181540180825580915050600190039060005260206000200160009091909190916101000a81548173ffffffffffffffffffffffffffffffffffffffff021916908373ffffffffffffffffffffffffffffffffffffffff1602179055505b50565b600080600090505b600260008473ffffffffffffffffffffffffffffffffffffffff1673ffffffffffffffffffffffffffffffffffffffff1681526020019081526020016000208054905081101561133c573373ffffffffffffffffffffffffffffffffffffffff16600260008573ffffffffffffffffffffffffffffffffffffffff1673ffffffffffffffffffffffffffffffffffffffff16815260200190815260200160002082815481106112df576112de611af2565b5b9060005260206000200160009054906101000a900473ffffffffffffffffffffffffffffffffffffffff1673ffffffffffffffffffffffffffffffffffffffff160361132f576001915050611342565b808060010191505061122d565b50600090505b919050565b50805461135390611b50565b6000825580601f106113655750611384565b601f016020900490600052602060002090810190611383919061142a565b5b50565b8280548282559060005260206000209060020281019282156113f85760005260206000209160020282015b828111156113f7578282600082018160000190816113d09190611e9d565b50600182018160010190816113e59190611e9d565b505050916002019190600201906113b2565b5b5090506114059190611447565b5090565b5080546000825590600052602060002090810190611427919061142a565b50565b5b8082111561144357600081600090555060010161142b565b5090565b5b8082111561147a57600080820160006114619190611347565b6001820160006114719190611347565b50600201611448565b5090565b6000604051905090565b600080fd5b600080fd5b600073ffffffffffffffffffffffffffffffffffffffff82169050919050565b60006114bd82611492565b9050919050565b6114cd816114b2565b81146114d857600080fd5b50565b6000813590506114ea816114c4565b92915050565b600080fd5b600080fd5b6000601f19601f8301169050919050565b7f4e487b7100000000000000000000000000000000000000000000000000000000600052604160045260246000fd5b611543826114fa565b810181811067ffffffffffffffff821117156115625761156161150b565b5b80604052505050565b600061157561147e565b9050611581828261153a565b919050565b600067ffffffffffffffff8211156115a1576115a061150b565b5b6115aa826114fa565b9050602081019050919050565b82818337600083830152505050565b60006115d96115d484611586565b61156b565b9050828152602081018484840111156115f5576115f46114f5565b5b6116008482856115b7565b509392505050565b600082601f83011261161d5761161c6114f0565b5b813561162d8482602086016115c6565b91505092915050565b6000806040838503121561164d5761164c611488565b5b600061165b858286016114db565b925050602083013567ffffffffffffffff81111561167c5761167b61148d565b5b61168885828601611608565b9150509250929050565b600081519050919050565b600082825260208201905092915050565b6000819050602082019050919050565b600081519050919050565b600082825260208201905092915050565b60005b838110156116f85780820151818401526020810190506116dd565b60008484015250505050565b600061170f826116be565b61171981856116c9565b93506117298185602086016116da565b611732816114fa565b840191505092915050565b611746816114b2565b82525050565b600060408301600083015184820360008601526117698282611704565b915050602083015161177e602086018261173d565b508091505092915050565b6000611795838361174c565b905092915050565b6000602082019050919050565b60006117b582611692565b6117bf818561169d565b9350836020820285016117d1856116ae565b8060005b8581101561180d57848403895281516117ee8582611789565b94506117f98361179d565b925060208a019950506001810190506117d5565b50829750879550505050505092915050565b6000602082019050818103600083015261183981846117aa565b905092915050565b60006020828403121561185757611856611488565b5b6000611865848285016114db565b91505092915050565b600081519050919050565b600082825260208201905092915050565b6000819050602082019050919050565b600060408301600083015184820360008601526118b78282611704565b915050602083015184820360208601526118d18282611704565b9150508091505092915050565b60006118ea838361189a565b905092915050565b6000602082019050919050565b600061190a8261186e565b6119148185611879565b9350836020820285016119268561188a565b8060005b85811015611962578484038952815161194385826118de565b945061194e836118f2565b925060208a0199505060018101905061192a565b50829750879550505050505092915050565b6000602082019050818103600083015261198e81846118ff565b905092915050565b600081519050919050565b600082825260208201905092915050565b6000819050602082019050919050565b60006119ce838361173d565b60208301905092915050565b6000602082019050919050565b60006119f282611996565b6119fc81856119a1565b9350611a07836119b2565b8060005b83811015611a38578151611a1f88826119c2565b9750611a2a836119da565b925050600181019050611a0b565b5085935050505092915050565b60006020820190508181036000830152611a5f81846119e7565b905092915050565b600080600060608486031215611a8057611a7f611488565b5b6000611a8e868287016114db565b935050602084013567ffffffffffffffff811115611aaf57611aae61148d565b5b611abb86828701611608565b925050604084013567ffffffffffffffff811115611adc57611adb61148d565b5b611ae886828701611608565b9150509250925092565b7f4e487b7100000000000000000000000000000000000000000000000000000000600052603260045260246000fd5b7f4e487b7100000000000000000000000000000000000000000000000000000000600052602260045260246000fd5b60006002820490506001821680611b6857607f821691505b602082108103611b7b57611b7a611b21565b5b50919050565b600081905092915050565b60008190508160005260206000209050919050565b60008154611bae81611b50565b611bb88186611b81565b94506001821660008114611bd35760018114611be857611c1b565b60ff1983168652811515820286019350611c1b565b611bf185611b8c565b60005b83811015611c1357815481890152600182019150602081019050611bf4565b838801955050505b50505092915050565b6000611c308284611ba1565b915081905092915050565b6000611c46826116be565b611c508185611b81565b9350611c608185602086016116da565b80840191505092915050565b6000611c788284611c3b565b915081905092915050565b6000819050919050565b7f4e487b7100000000000000000000000000000000000000000000000000000000600052601160045260246000fd5b6000611cc782611c83565b9150611cd283611c83565b9250828203905081811115611cea57611ce9611c8d565b5b92915050565b600081549050611cff81611b50565b9050919050565b60006020601f8301049050919050565b600082821b905092915050565b600060088302611d537fffffffffffffffffffffffffffffffffffffffffffffffffffffffffffffffff82611d16565b611d5d8683611d16565b95508019841693508086168417925050509392505050565b6000819050919050565b6000611d9a611d95611d9084611c83565b611d75565b611c83565b9050919050565b6000819050919050565b611db483611d7f565b611dc8611dc082611da1565b848454611d23565b825550505050565b600090565b611ddd611dd0565b611de8818484611dab565b505050565b5b81811015611e0c57611e01600082611dd5565b600181019050611dee565b5050565b601f821115611e5157611e2281611b8c565b611e2b84611d06565b81016020851015611e3a578190505b611e4e611e4685611d06565b830182611ded565b50505b505050565b600082821c905092915050565b6000611e7460001984600802611e56565b1980831691505092915050565b6000611e8d8383611e63565b9150826002028217905092915050565b818103611eab575050611f83565b611eb482611cf0565b67ffffffffffffffff811115611ecd57611ecc61150b565b5b611ed78254611b50565b611ee2828285611e10565b6000601f831160018114611f115760008415611eff578287015490505b611f098582611e81565b865550611f7c565b601f198416611f1f87611b8c565b9650611f2a86611b8c565b60005b82811015611f5257848901548255600182019150600185019450602081019050611f2d565b86831015611f6f5784890154611f6b601f891682611e63565b8355505b6001600288020188555050505b5050505050505b565b7f4e487b7100000000000000000000000000000000000000000000000000000000600052603160045260246000fd5b600082825260208201905092915050565b7f416c726561647920467269656e64000000000000000000000000000000000000600082015250565b6000611ffb600e83611fb4565b915061200682611fc5565b602082019050919050565b6000602082019050818103600083015261202a81611fee565b9050919050565b61203a826116be565b67ffffffffffffffff8111156120535761205261150b565b5b61205d8254611b50565b612068828285611e10565b600060209050601f83116001811461209b5760008415612089578287015190505b6120938582611e81565b8655506120fb565b601f1984166120a986611b8c565b60005b828110156120d1578489015182556001820191506020850194506020810190506120ac565b868310156120ee57848901516120ea601f891682611e63565b8355505b6001600288020188555050505b50505050505056fea2646970667358221220ebfa56f229e85cf637af45bdb1e03b3fd689a1c2302a2ce7c4e927a2ad53d06664736f6c63430008180033",
  "linkReferences": {},
  "deployedLinkReferences": {}
}